{
  "contractName": "PointsSystem",
  "abi": [
    {
      "anonymous": false,
      "inputs": [
        {
          "indexed": false,
          "internalType": "uint256",
          "name": "userId",
          "type": "uint256"
        },
        {
          "indexed": false,
          "internalType": "uint256",
          "name": "points",
          "type": "uint256"
        }
      ],
      "name": "PointsAdded",
      "type": "event"
    },
    {
      "anonymous": false,
      "inputs": [
        {
          "indexed": false,
          "internalType": "uint256",
          "name": "userId",
          "type": "uint256"
        },
        {
          "indexed": false,
          "internalType": "uint256",
          "name": "points",
          "type": "uint256"
        }
      ],
      "name": "PointsRedeemed",
      "type": "event"
    },
    {
      "anonymous": false,
      "inputs": [
        {
          "indexed": false,
          "internalType": "uint256",
          "name": "fromUserId",
          "type": "uint256"
        },
        {
          "indexed": false,
          "internalType": "uint256",
          "name": "toUserId",
          "type": "uint256"
        },
        {
          "indexed": false,
          "internalType": "uint256",
          "name": "points",
          "type": "uint256"
        }
      ],
      "name": "PointsTransferred",
      "type": "event"
    },
    {
      "inputs": [
        {
          "internalType": "uint256",
          "name": "",
          "type": "uint256"
        },
        {
          "internalType": "uint256",
          "name": "",
          "type": "uint256"
        }
      ],
      "name": "pointTransactions",
      "outputs": [
        {
          "internalType": "uint256",
          "name": "userId",
          "type": "uint256"
        },
        {
          "internalType": "uint256",
          "name": "points",
          "type": "uint256"
        },
        {
          "internalType": "enum PointsSystem.TransactionType",
          "name": "transactionType",
          "type": "uint8"
        },
        {
          "internalType": "uint256",
          "name": "timestamp",
          "type": "uint256"
        },
        {
          "internalType": "uint256",
          "name": "toUserId",
          "type": "uint256"
        },
        {
          "internalType": "uint256",
          "name": "balanceAfterTransaction",
          "type": "uint256"
        },
        {
          "internalType": "bytes32",
          "name": "txHash",
          "type": "bytes32"
        },
        {
          "internalType": "string",
          "name": "method",
          "type": "string"
        },
        {
          "internalType": "uint256",
          "name": "blockNumber",
          "type": "uint256"
        }
      ],
      "stateMutability": "view",
      "type": "function"
    },
    {
      "inputs": [
        {
          "internalType": "uint256",
          "name": "",
          "type": "uint256"
        }
      ],
      "name": "userPoints",
      "outputs": [
        {
          "internalType": "uint256",
          "name": "userId",
          "type": "uint256"
        },
        {
          "internalType": "string",
          "name": "phone",
          "type": "string"
        },
        {
          "internalType": "uint256",
          "name": "points",
          "type": "uint256"
        }
      ],
      "stateMutability": "view",
      "type": "function"
    },
    {
      "inputs": [
        {
          "internalType": "uint256",
          "name": "_userId",
          "type": "uint256"
        },
        {
          "internalType": "string",
          "name": "_phone",
          "type": "string"
        },
        {
          "internalType": "uint256",
          "name": "_points",
          "type": "uint256"
        }
      ],
      "name": "addPoint",
      "outputs": [],
      "stateMutability": "nonpayable",
      "type": "function"
    },
    {
      "inputs": [
        {
          "internalType": "uint256",
          "name": "_userId",
          "type": "uint256"
        },
        {
          "internalType": "uint256",
          "name": "_points",
          "type": "uint256"
        }
      ],
      "name": "redeemPoint",
      "outputs": [],
      "stateMutability": "nonpayable",
      "type": "function"
    },
    {
      "inputs": [
        {
          "internalType": "uint256",
          "name": "_fromUserId",
          "type": "uint256"
        },
        {
          "internalType": "uint256",
          "name": "_toUserId",
          "type": "uint256"
        },
        {
          "internalType": "uint256",
          "name": "_points",
          "type": "uint256"
        }
      ],
      "name": "transferPoint",
      "outputs": [],
      "stateMutability": "nonpayable",
      "type": "function"
    },
    {
      "inputs": [
        {
          "internalType": "uint256",
          "name": "_userId",
          "type": "uint256"
        }
      ],
      "name": "getPoint",
      "outputs": [
        {
          "internalType": "uint256",
          "name": "",
          "type": "uint256"
        }
      ],
      "stateMutability": "view",
      "type": "function"
    },
    {
      "inputs": [
        {
          "internalType": "uint256",
          "name": "_userId",
          "type": "uint256"
        }
      ],
      "name": "getTransaction",
      "outputs": [
        {
          "components": [
            {
              "internalType": "uint256",
              "name": "userId",
              "type": "uint256"
            },
            {
              "internalType": "uint256",
              "name": "points",
              "type": "uint256"
            },
            {
              "internalType": "enum PointsSystem.TransactionType",
              "name": "transactionType",
              "type": "uint8"
            },
            {
              "internalType": "uint256",
              "name": "timestamp",
              "type": "uint256"
            },
            {
              "internalType": "uint256",
              "name": "toUserId",
              "type": "uint256"
            },
            {
              "internalType": "uint256",
              "name": "balanceAfterTransaction",
              "type": "uint256"
            },
            {
              "internalType": "bytes32",
              "name": "txHash",
              "type": "bytes32"
            },
            {
              "internalType": "string",
              "name": "method",
              "type": "string"
            },
            {
              "internalType": "uint256",
              "name": "blockNumber",
              "type": "uint256"
            }
          ],
          "internalType": "struct PointsSystem.PointTransaction[]",
          "name": "",
          "type": "tuple[]"
        }
      ],
      "stateMutability": "view",
      "type": "function"
    }
  ],
  "bytecode": "0x608060405234801561000f575f80fd5b50611c198061001d5f395ff3fe608060405234801561000f575f80fd5b506004361061007b575f3560e01c80634c57ab8b116100595780634c57ab8b146100fd578063869f1c8e14610119578063873864f714610149578063e67b7bea146101815761007b565b8063188b95e31461007f57806333ea3dc8146100b15780633ab55a48146100e1575b5f80fd5b61009960048036038101906100949190610f0c565b61019d565b6040516100a893929190610fd0565b60405180910390f35b6100cb60048036038101906100c69190610f0c565b610248565b6040516100d8919061126b565b60405180910390f35b6100fb60048036038101906100f6919061128b565b6103c5565b005b61011760048036038101906101129190611407565b61087b565b005b610133600480360381019061012e9190610f0c565b610a98565b6040516101409190611473565b60405180910390f35b610163600480360381019061015e919061148c565b610ab4565b604051610178999897969594939291906114e8565b60405180910390f35b61019b6004803603810190610196919061148c565b610baa565b005b5f602052805f5260405f205f91509050805f0154908060010180546101c1906115a7565b80601f01602080910402602001604051908101604052809291908181526020018280546101ed906115a7565b80156102385780601f1061020f57610100808354040283529160200191610238565b820191905f5260205f20905b81548152906001019060200180831161021b57829003601f168201915b5050505050908060020154905083565b606060015f8381526020019081526020015f20805480602002602001604051908101604052809291908181526020015f905b828210156103ba578382905f5260205f209060090201604051806101200160405290815f820154815260200160018201548152602001600282015f9054906101000a900460ff1660038111156102d3576102d2611044565b5b60038111156102e5576102e4611044565b5b815260200160038201548152602001600482015481526020016005820154815260200160068201548152602001600782018054610321906115a7565b80601f016020809104026020016040519081016040528092919081815260200182805461034d906115a7565b80156103985780601f1061036f57610100808354040283529160200191610398565b820191905f5260205f20905b81548152906001019060200180831161037b57829003601f168201915b505050505081526020016008820154815250508152602001906001019061027a565b505050509050919050565b6103ce82610e47565b5f805f8581526020019081526020015f205f015403610422576040517f08c379a000000000000000000000000000000000000000000000000000000000815260040161041990611621565b60405180910390fd5b5f805f8481526020019081526020015f205f015403610476576040517f08c379a000000000000000000000000000000000000000000000000000000000815260040161046d90611689565b60405180910390fd5b805f808581526020019081526020015f206002015410156104cc576040517f08c379a00000000000000000000000000000000000000000000000000000000081526004016104c3906116f1565b60405180910390fd5b805f808581526020019081526020015f206002015f8282546104ee919061173c565b92505081905550805f808481526020019081526020015f206002015f828254610517919061176f565b925050819055505f805f8581526020019081526020015f206002015490505f805f8581526020019081526020015f2060020154905060015f8681526020019081526020015f2060405180610120016040528087815260200185815260200160038081111561058857610587611044565b5b8152602001428152602001868152602001848152602001878787426040516020016105b694939291906117c2565b6040516020818303038152906040528051906020012081526020016040518060400160405280600d81526020017f7472616e73666572506f696e7400000000000000000000000000000000000000815250815260200143815250908060018154018082558091505060019003905f5260205f2090600902015f909190919091505f820151815f0155602082015181600101556040820151816002015f6101000a81548160ff0219169083600381111561067257610671611044565b5b0217905550606082015181600301556080820151816004015560a0820151816005015560c0820151816006015560e08201518160070190816106b491906119ac565b506101008201518160080155505060015f8581526020019081526020015f20604051806101200160405280868152602001858152602001600260038111156106ff576106fe611044565b5b81526020014281526020018781526020018381526020018688874260405160200161072d94939291906117c2565b6040516020818303038152906040528051906020012081526020016040518060400160405280600d81526020017f7472616e73666572506f696e7400000000000000000000000000000000000000815250815260200143815250908060018154018082558091505060019003905f5260205f2090600902015f909190919091505f820151815f0155602082015181600101556040820151816002015f6101000a81548160ff021916908360038111156107e9576107e8611044565b5b0217905550606082015181600301556080820151816004015560a0820151816005015560c0820151816006015560e082015181600701908161082b91906119ac565b50610100820151816008015550507fc51932e5a8b0980e7a354d81f40c980b93375d49fc273310e3e0173856c7f89185858560405161086c93929190611a7b565b60405180910390a15050505050565b61088483610e47565b805f808581526020019081526020015f206002015f8282546108a6919061176f565b92505081905550815f808581526020019081526020015f2060010190816108cd91906119ac565b505f805f8581526020019081526020015f2060020154905060015f8581526020019081526020015f206040518061012001604052808681526020018481526020015f600381111561092157610920611044565b5b81526020014281526020015f815260200183815260200186854260405160200161094d93929190611ab0565b6040516020818303038152906040528051906020012081526020016040518060400160405280600881526020017f616464506f696e74000000000000000000000000000000000000000000000000815250815260200143815250908060018154018082558091505060019003905f5260205f2090600902015f909190919091505f820151815f0155602082015181600101556040820151816002015f6101000a81548160ff02191690836003811115610a0957610a08611044565b5b0217905550606082015181600301556080820151816004015560a0820151816005015560c0820151816006015560e0820151816007019081610a4b91906119ac565b50610100820151816008015550507ff54b9ab9e866899cf7486a617bf4f1e402300b8c2b16214e8f20f0d8ba03ca118483604051610a8a929190611aec565b60405180910390a150505050565b5f805f8381526020019081526020015f20600201549050919050565b6001602052815f5260405f208181548110610acd575f80fd5b905f5260205f2090600902015f9150915050805f015490806001015490806002015f9054906101000a900460ff1690806003015490806004015490806005015490806006015490806007018054610b23906115a7565b80601f0160208091040260200160405190810160405280929190818152602001828054610b4f906115a7565b8015610b9a5780601f10610b7157610100808354040283529160200191610b9a565b820191905f5260205f20905b815481529060010190602001808311610b7d57829003601f168201915b5050505050908060080154905089565b5f805f8481526020019081526020015f205f015403610bfe576040517f08c379a0000000000000000000000000000000000000000000000000000000008152600401610bf590611b5d565b60405180910390fd5b805f808481526020019081526020015f20600201541015610c54576040517f08c379a0000000000000000000000000000000000000000000000000000000008152600401610c4b90611bc5565b60405180910390fd5b805f808481526020019081526020015f206002015f828254610c76919061173c565b925050819055505f805f8481526020019081526020015f2060020154905060015f8481526020019081526020015f2060405180610120016040528085815260200184815260200160016003811115610cd157610cd0611044565b5b81526020014281526020015f8152602001838152602001858542604051602001610cfd93929190611ab0565b6040516020818303038152906040528051906020012081526020016040518060400160405280600b81526020017f72656465656d506f696e74000000000000000000000000000000000000000000815250815260200143815250908060018154018082558091505060019003905f5260205f2090600902015f909190919091505f820151815f0155602082015181600101556040820151816002015f6101000a81548160ff02191690836003811115610db957610db8611044565b5b0217905550606082015181600301556080820151816004015560a0820151816005015560c0820151816006015560e0820151816007019081610dfb91906119ac565b50610100820151816008015550507f91bd62feedf9dce909d424cc62c927585249e57c412c132b7f7afce98530a21f8383604051610e3a929190611aec565b60405180910390a1505050565b5f805f8381526020019081526020015f205f015403610ec557604051806060016040528082815260200160405180602001604052805f81525081526020015f8152505f808381526020019081526020015f205f820151815f01556020820151816001019081610eb691906119ac565b50604082015181600201559050505b50565b5f604051905090565b5f80fd5b5f80fd5b5f819050919050565b610eeb81610ed9565b8114610ef5575f80fd5b50565b5f81359050610f0681610ee2565b92915050565b5f60208284031215610f2157610f20610ed1565b5b5f610f2e84828501610ef8565b91505092915050565b610f4081610ed9565b82525050565b5f81519050919050565b5f82825260208201905092915050565b5f5b83811015610f7d578082015181840152602081019050610f62565b5f8484015250505050565b5f601f19601f8301169050919050565b5f610fa282610f46565b610fac8185610f50565b9350610fbc818560208601610f60565b610fc581610f88565b840191505092915050565b5f606082019050610fe35f830186610f37565b8181036020830152610ff58185610f98565b90506110046040830184610f37565b949350505050565b5f81519050919050565b5f82825260208201905092915050565b5f819050602082019050919050565b61103e81610ed9565b82525050565b7f4e487b71000000000000000000000000000000000000000000000000000000005f52602160045260245ffd5b6004811061108257611081611044565b5b50565b5f81905061109282611071565b919050565b5f6110a182611085565b9050919050565b6110b181611097565b82525050565b5f819050919050565b6110c9816110b7565b82525050565b5f82825260208201905092915050565b5f6110e982610f46565b6110f381856110cf565b9350611103818560208601610f60565b61110c81610f88565b840191505092915050565b5f61012083015f83015161112d5f860182611035565b5060208301516111406020860182611035565b50604083015161115360408601826110a8565b5060608301516111666060860182611035565b5060808301516111796080860182611035565b5060a083015161118c60a0860182611035565b5060c083015161119f60c08601826110c0565b5060e083015184820360e08601526111b782826110df565b9150506101008301516111ce610100860182611035565b508091505092915050565b5f6111e48383611117565b905092915050565b5f602082019050919050565b5f6112028261100c565b61120c8185611016565b93508360208202850161121e85611026565b805f5b85811015611259578484038952815161123a85826111d9565b9450611245836111ec565b925060208a01995050600181019050611221565b50829750879550505050505092915050565b5f6020820190508181035f83015261128381846111f8565b905092915050565b5f805f606084860312156112a2576112a1610ed1565b5b5f6112af86828701610ef8565b93505060206112c086828701610ef8565b92505060406112d186828701610ef8565b9150509250925092565b5f80fd5b5f80fd5b7f4e487b71000000000000000000000000000000000000000000000000000000005f52604160045260245ffd5b61131982610f88565b810181811067ffffffffffffffff82111715611338576113376112e3565b5b80604052505050565b5f61134a610ec8565b90506113568282611310565b919050565b5f67ffffffffffffffff821115611375576113746112e3565b5b61137e82610f88565b9050602081019050919050565b828183375f83830152505050565b5f6113ab6113a68461135b565b611341565b9050828152602081018484840111156113c7576113c66112df565b5b6113d284828561138b565b509392505050565b5f82601f8301126113ee576113ed6112db565b5b81356113fe848260208601611399565b91505092915050565b5f805f6060848603121561141e5761141d610ed1565b5b5f61142b86828701610ef8565b935050602084013567ffffffffffffffff81111561144c5761144b610ed5565b5b611458868287016113da565b925050604061146986828701610ef8565b9150509250925092565b5f6020820190506114865f830184610f37565b92915050565b5f80604083850312156114a2576114a1610ed1565b5b5f6114af85828601610ef8565b92505060206114c085828601610ef8565b9150509250929050565b6114d381611097565b82525050565b6114e2816110b7565b82525050565b5f610120820190506114fc5f83018c610f37565b611509602083018b610f37565b611516604083018a6114ca565b6115236060830189610f37565b6115306080830188610f37565b61153d60a0830187610f37565b61154a60c08301866114d9565b81810360e083015261155c8185610f98565b905061156c610100830184610f37565b9a9950505050505050505050565b7f4e487b71000000000000000000000000000000000000000000000000000000005f52602260045260245ffd5b5f60028204905060018216806115be57607f821691505b6020821081036115d1576115d061157a565b5b50919050565b7f53656e64657220646f6573206e6f7420657869737400000000000000000000005f82015250565b5f61160b601583610f50565b9150611616826115d7565b602082019050919050565b5f6020820190508181035f830152611638816115ff565b9050919050565b7f526563697069656e7420646f6573206e6f7420657869737400000000000000005f82015250565b5f611673601883610f50565b915061167e8261163f565b602082019050919050565b5f6020820190508181035f8301526116a081611667565b9050919050565b7f496e73756666696369656e7420706f696e7473000000000000000000000000005f82015250565b5f6116db601383610f50565b91506116e6826116a7565b602082019050919050565b5f6020820190508181035f830152611708816116cf565b9050919050565b7f4e487b71000000000000000000000000000000000000000000000000000000005f52601160045260245ffd5b5f61174682610ed9565b915061175183610ed9565b92508282039050818111156117695761176861170f565b5b92915050565b5f61177982610ed9565b915061178483610ed9565b925082820190508082111561179c5761179b61170f565b5b92915050565b5f819050919050565b6117bc6117b782610ed9565b6117a2565b82525050565b5f6117cd82876117ab565b6020820191506117dd82866117ab565b6020820191506117ed82856117ab565b6020820191506117fd82846117ab565b60208201915081905095945050505050565b5f819050815f5260205f209050919050565b5f6020601f8301049050919050565b5f82821b905092915050565b5f6008830261186b7fffffffffffffffffffffffffffffffffffffffffffffffffffffffffffffffff82611830565b6118758683611830565b95508019841693508086168417925050509392505050565b5f819050919050565b5f6118b06118ab6118a684610ed9565b61188d565b610ed9565b9050919050565b5f819050919050565b6118c983611896565b6118dd6118d5826118b7565b84845461183c565b825550505050565b5f90565b6118f16118e5565b6118fc8184846118c0565b505050565b5b8181101561191f576119145f826118e9565b600181019050611902565b5050565b601f821115611964576119358161180f565b61193e84611821565b8101602085101561194d578190505b61196161195985611821565b830182611901565b50505b505050565b5f82821c905092915050565b5f6119845f1984600802611969565b1980831691505092915050565b5f61199c8383611975565b9150826002028217905092915050565b6119b582610f46565b67ffffffffffffffff8111156119ce576119cd6112e3565b5b6119d882546115a7565b6119e3828285611923565b5f60209050601f831160018114611a14575f8415611a02578287015190505b611a0c8582611991565b865550611a73565b601f198416611a228661180f565b5f5b82811015611a4957848901518255600182019150602085019450602081019050611a24565b86831015611a665784890151611a62601f891682611975565b8355505b6001600288020188555050505b505050505050565b5f606082019050611a8e5f830186610f37565b611a9b6020830185610f37565b611aa86040830184610f37565b949350505050565b5f611abb82866117ab565b602082019150611acb82856117ab565b602082019150611adb82846117ab565b602082019150819050949350505050565b5f604082019050611aff5f830185610f37565b611b0c6020830184610f37565b9392505050565b7f5573657220646f6573206e6f74206578697374000000000000000000000000005f82015250565b5f611b47601383610f50565b9150611b5282611b13565b602082019050919050565b5f6020820190508181035f830152611b7481611b3b565b9050919050565b7f496e73756666696369656e7420706f696e747320746f2072656465656d0000005f82015250565b5f611baf601d83610f50565b9150611bba82611b7b565b602082019050919050565b5f6020820190508181035f830152611bdc81611ba3565b905091905056fea2646970667358221220bbb92ce832b2ca7a225fba37cd96b79bdd3c132164bb4de6d038c4998fc5ce5564736f6c63430008150033",
  "immutableReferences": {},
  "source": "// SPDX-License-Identifier: MIT\r\npragma solidity >=0.7.0 <0.9.0;\r\n\r\ncontract PointsSystem {\r\n    struct UserPoint {\r\n        uint256 userId;\r\n        string phone;\r\n        uint256 points;\r\n    }\r\n\r\n    enum TransactionType { Add, Redeem, TransferIn, TransferOut }\r\n\r\n    struct PointTransaction {\r\n        uint256 userId;\r\n        uint256 points;\r\n        TransactionType transactionType;\r\n        uint256 timestamp;\r\n        uint256 toUserId;\r\n        uint256 balanceAfterTransaction;\r\n        bytes32 txHash;         //  transaction hash\r\n        string method;           //  method\r\n        uint256 blockNumber;     //  block number\r\n    }\r\n\r\n    mapping(uint256 => UserPoint) public userPoints;\r\n    mapping(uint256 => PointTransaction[]) public pointTransactions;\r\n\r\n    event PointsAdded(uint256 userId, uint256 points);\r\n    event PointsRedeemed(uint256 userId, uint256 points);\r\n    event PointsTransferred(uint256 fromUserId, uint256 toUserId, uint256 points);\r\n\r\n    function createUserIfNotExists(uint256 _userId) internal {\r\n        if (userPoints[_userId].userId == 0) {\r\n            userPoints[_userId] = UserPoint(_userId, \"\", 0); // phone \r\n        }\r\n    }\r\n\r\n    function addPoint(uint256 _userId, string memory _phone, uint256 _points) public {\r\n        createUserIfNotExists(_userId);\r\n\r\n        userPoints[_userId].points += _points;\r\n        userPoints[_userId].phone = _phone;\r\n\r\n        uint256 balanceAfter = userPoints[_userId].points;\r\n\r\n        pointTransactions[_userId].push(\r\n            PointTransaction(\r\n                _userId,\r\n                _points,\r\n                TransactionType.Add,\r\n                block.timestamp,\r\n                0,\r\n                balanceAfter,\r\n                keccak256(abi.encodePacked(_userId, _points, block.timestamp)),\r\n                \"addPoint\",\r\n                block.number\r\n            )\r\n        );\r\n\r\n        emit PointsAdded(_userId, _points);\r\n    }\r\n\r\n    function redeemPoint(uint256 _userId, uint256 _points) public {\r\n        require(userPoints[_userId].userId != 0, \"User does not exist\");\r\n        require(userPoints[_userId].points >= _points, \"Insufficient points to redeem\");\r\n\r\n        userPoints[_userId].points -= _points;\r\n        uint256 balanceAfter = userPoints[_userId].points;\r\n\r\n        pointTransactions[_userId].push(\r\n            PointTransaction(\r\n                _userId,\r\n                _points,\r\n                TransactionType.Redeem,\r\n                block.timestamp,\r\n                0,\r\n                balanceAfter,\r\n                keccak256(abi.encodePacked(_userId, _points, block.timestamp)),\r\n                \"redeemPoint\",\r\n                block.number\r\n            )\r\n        );\r\n\r\n        emit PointsRedeemed(_userId, _points);\r\n    }\r\n\r\n    function transferPoint(uint256 _fromUserId, uint256 _toUserId, uint256 _points) public {\r\n        createUserIfNotExists(_toUserId);\r\n\r\n        require(userPoints[_fromUserId].userId != 0, \"Sender does not exist\");\r\n        require(userPoints[_toUserId].userId != 0, \"Recipient does not exist\");\r\n        require(userPoints[_fromUserId].points >= _points, \"Insufficient points\");\r\n\r\n        userPoints[_fromUserId].points -= _points;\r\n        userPoints[_toUserId].points += _points;\r\n\r\n        uint256 senderBalanceAfter = userPoints[_fromUserId].points;\r\n        uint256 recipientBalanceAfter = userPoints[_toUserId].points;\r\n\r\n        //  TransferOut \r\n        pointTransactions[_fromUserId].push(\r\n            PointTransaction(\r\n                _fromUserId,\r\n                _points,\r\n                TransactionType.TransferOut,\r\n                block.timestamp,\r\n                _toUserId,\r\n                senderBalanceAfter,\r\n                keccak256(abi.encodePacked(_fromUserId, _toUserId, _points, block.timestamp)),\r\n                \"transferPoint\",\r\n                block.number\r\n            )\r\n        );\r\n\r\n        //  TransferIn \r\n        pointTransactions[_toUserId].push(\r\n            PointTransaction(\r\n                _toUserId,\r\n                _points,\r\n                TransactionType.TransferIn,\r\n                block.timestamp,\r\n                _fromUserId,\r\n                recipientBalanceAfter,\r\n                keccak256(abi.encodePacked(_toUserId, _fromUserId, _points, block.timestamp)),\r\n                \"transferPoint\",\r\n                block.number\r\n            )\r\n        );\r\n\r\n        emit PointsTransferred(_fromUserId, _toUserId, _points);\r\n    }\r\n\r\n    function getPoint(uint256 _userId) public view returns (uint256) {\r\n        return userPoints[_userId].points;\r\n    }\r\n\r\n    function getTransaction(uint256 _userId) public view returns (PointTransaction[] memory) {\r\n        return pointTransactions[_userId];\r\n    }\r\n}\r\n",
  "sourcePath": "D:\\BlockChain\\App\\loyalty-system-backend\\contracts\\PointsSystem.sol",
  "compiler": {
    "name": "solc",
    "version": "0.8.21+commit.d9974bed.Emscripten.clang"
  },
  "schemaVersion": "3.4.16",
  "updatedAt": "2024-11-09T13:10:48.776Z",
  "devdoc": {
    "kind": "dev",
    "methods": {},
    "version": 1
  },
  "userdoc": {
    "kind": "user",
    "methods": {},
    "version": 1
  }
}