{
  "contractName": "PointsSystem",
  "abi": [
    {
      "anonymous": false,
      "inputs": [
        {
          "indexed": false,
          "internalType": "uint256",
          "name": "userId",
          "type": "uint256"
        },
        {
          "indexed": false,
          "internalType": "string",
          "name": "phone",
          "type": "string"
        },
        {
          "indexed": false,
          "internalType": "uint256",
          "name": "points",
          "type": "uint256"
        }
      ],
      "name": "PointsAdded",
      "type": "event"
    },
    {
      "inputs": [
        {
          "internalType": "uint256",
          "name": "",
          "type": "uint256"
        }
      ],
      "name": "userPoints",
      "outputs": [
        {
          "internalType": "uint256",
          "name": "userId",
          "type": "uint256"
        },
        {
          "internalType": "string",
          "name": "phone",
          "type": "string"
        },
        {
          "internalType": "uint256",
          "name": "points",
          "type": "uint256"
        }
      ],
      "stateMutability": "view",
      "type": "function"
    },
    {
      "inputs": [
        {
          "internalType": "uint256",
          "name": "_userId",
          "type": "uint256"
        },
        {
          "internalType": "string",
          "name": "_phone",
          "type": "string"
        },
        {
          "internalType": "uint256",
          "name": "_points",
          "type": "uint256"
        }
      ],
      "name": "addPoint",
      "outputs": [],
      "stateMutability": "nonpayable",
      "type": "function"
    }
  ],
  "bytecode": "0x608060405234801561000f575f80fd5b506107a28061001d5f395ff3fe608060405234801561000f575f80fd5b5060043610610034575f3560e01c8063188b95e3146100385780634c57ab8b1461006a575b5f80fd5b610052600480360381019061004d919061020b565b610086565b604051610061939291906102cf565b60405180910390f35b610084600480360381019061007f9190610437565b610131565b005b5f602052805f5260405f205f91509050805f0154908060010180546100aa906104d0565b80601f01602080910402602001604051908101604052809291908181526020018280546100d6906104d0565b80156101215780601f106100f857610100808354040283529160200191610121565b820191905f5260205f20905b81548152906001019060200180831161010457829003601f168201915b5050505050908060020154905083565b6040518060600160405280848152602001838152602001828152505f808581526020019081526020015f205f820151815f01556020820151816001019081610179919061069d565b50604082015181600201559050507f72d47f3838f4378584565b57992f43810443a729e04dba5469f0d0342dc5aa188383836040516101ba939291906102cf565b60405180910390a1505050565b5f604051905090565b5f80fd5b5f80fd5b5f819050919050565b6101ea816101d8565b81146101f4575f80fd5b50565b5f81359050610205816101e1565b92915050565b5f602082840312156102205761021f6101d0565b5b5f61022d848285016101f7565b91505092915050565b61023f816101d8565b82525050565b5f81519050919050565b5f82825260208201905092915050565b5f5b8381101561027c578082015181840152602081019050610261565b5f8484015250505050565b5f601f19601f8301169050919050565b5f6102a182610245565b6102ab818561024f565b93506102bb81856020860161025f565b6102c481610287565b840191505092915050565b5f6060820190506102e25f830186610236565b81810360208301526102f48185610297565b90506103036040830184610236565b949350505050565b5f80fd5b5f80fd5b7f4e487b71000000000000000000000000000000000000000000000000000000005f52604160045260245ffd5b61034982610287565b810181811067ffffffffffffffff8211171561036857610367610313565b5b80604052505050565b5f61037a6101c7565b90506103868282610340565b919050565b5f67ffffffffffffffff8211156103a5576103a4610313565b5b6103ae82610287565b9050602081019050919050565b828183375f83830152505050565b5f6103db6103d68461038b565b610371565b9050828152602081018484840111156103f7576103f661030f565b5b6104028482856103bb565b509392505050565b5f82601f83011261041e5761041d61030b565b5b813561042e8482602086016103c9565b91505092915050565b5f805f6060848603121561044e5761044d6101d0565b5b5f61045b868287016101f7565b935050602084013567ffffffffffffffff81111561047c5761047b6101d4565b5b6104888682870161040a565b9250506040610499868287016101f7565b9150509250925092565b7f4e487b71000000000000000000000000000000000000000000000000000000005f52602260045260245ffd5b5f60028204905060018216806104e757607f821691505b6020821081036104fa576104f96104a3565b5b50919050565b5f819050815f5260205f209050919050565b5f6020601f8301049050919050565b5f82821b905092915050565b5f6008830261055c7fffffffffffffffffffffffffffffffffffffffffffffffffffffffffffffffff82610521565b6105668683610521565b95508019841693508086168417925050509392505050565b5f819050919050565b5f6105a161059c610597846101d8565b61057e565b6101d8565b9050919050565b5f819050919050565b6105ba83610587565b6105ce6105c6826105a8565b84845461052d565b825550505050565b5f90565b6105e26105d6565b6105ed8184846105b1565b505050565b5b81811015610610576106055f826105da565b6001810190506105f3565b5050565b601f8211156106555761062681610500565b61062f84610512565b8101602085101561063e578190505b61065261064a85610512565b8301826105f2565b50505b505050565b5f82821c905092915050565b5f6106755f198460080261065a565b1980831691505092915050565b5f61068d8383610666565b9150826002028217905092915050565b6106a682610245565b67ffffffffffffffff8111156106bf576106be610313565b5b6106c982546104d0565b6106d4828285610614565b5f60209050601f831160018114610705575f84156106f3578287015190505b6106fd8582610682565b865550610764565b601f19841661071386610500565b5f5b8281101561073a57848901518255600182019150602085019450602081019050610715565b868310156107575784890151610753601f891682610666565b8355505b6001600288020188555050505b50505050505056fea264697066735822122066920e5aa15037186a8e05256e71881f3481eefa7fdc398a262d32da1f43327364736f6c63430008150033",
  "immutableReferences": {},
  "source": "// SPDX-License-Identifier: MIT\r\npragma solidity >=0.7.0 <0.9.0;\r\n\r\ncontract PointsSystem {\r\n    struct UserPoint {\r\n        uint256 userId;\r\n        string phone;\r\n        uint256 points;\r\n    }\r\n\r\n    mapping(uint256 => UserPoint) public userPoints;\r\n\r\n    event PointsAdded(uint256 userId, string phone, uint256 points);\r\n\r\n    function addPoint(uint256 _userId, string memory _phone, uint256 _points) public {\r\n        userPoints[_userId] = UserPoint(_userId, _phone, _points);\r\n        emit PointsAdded(_userId, _phone, _points);\r\n    }\r\n}\r\n",
  "sourcePath": "D:\\BlockChain\\App\\loyalty-system-backend\\contracts\\PointsSystem.sol",
  "compiler": {
    "name": "solc",
    "version": "0.8.21+commit.d9974bed.Emscripten.clang"
  },
  "schemaVersion": "3.4.16",
  "updatedAt": "2024-11-03T07:43:18.400Z",
  "devdoc": {
    "kind": "dev",
    "methods": {},
    "version": 1
  },
  "userdoc": {
    "kind": "user",
    "methods": {},
    "version": 1
  }
}